:1000000002308A00AF2A00000A108A100A11820703
:10001000313432343334343435343634373438349C
:1000200039342A34303423348C2B6536E337ED32BF
:100030000A26432200000C00CD377410E432203829
:10004000E139F3323A000C2B65396933E931613A11
:10005000E9376E172E1000010C10E3377239E531C5
:100060007410F030F339F7377232201D29008C36C6
:100070007010F3376D3AE834EE33A02BF237EE33DD
:1000800021008C266F3A20326510F030F339651D5F
:1000900000018C3670106937E3377239E531F4327C
:1000A00021000C008C3670106937E3377239E53166
:1000B000F43221000C008C266F3A20326510F030AB
:1000C000F339651D000042308400831300080319D2
:1000D00076280230F800F701F70B6C28F80B6B2834
:1000E0009730F700F70B7228800B69280800481832
:1000F0007B2808127C280816831608128312C81859
:100100008328881284288816831688128312481937
:100110008B2808138C280817831608138312C81914
:100120009328881394288817831688130000831255
:100130008815831688119C289D28831288118316A0
:10014000881183120800C901831608160030831233
:10015000081A0130C9048316881600308312881AE1
:100160000130F7000310F70D7708C904831608174C
:1001700000308312081B0130F700F70DF70DFC303B
:10018000F7057708C9048316881700308312881B87
:100190000130F700F70DF70DF70DF830F705770888
:1001A000C9044908F800080083168811881008114E
:1001B0008312881083168810081688160817881767
:1001C0008312081583160811000083128815831600
:1001D000881100008312A3207808C80088118316B4
:1001E000881100008312881583168811F72883125E
:1001F000A3207808C7008811831688110812881276
:10020000081388138312480EF700F030F7057708BB
:100210004704F8007808C700C71F10298316DC2898
:10022000C508031D152988101629881483168810FF
:100230000000831208118316081100008312881130
:10024000831688118312460EC7000F30C705470872
:10025000C800772046080F39C700C800772008007B
:100260002830BE000C30BF000130C0000630C10095
:1002700088118316881183128810831688108312C0
:1002800008118316081108128812081388138811A0
:10029000881008110F308312C20063200130BD00A6
:1002A0003D08033C031C5C290330C800772005305F
:1002B000C2006320BD0A50290230C80077200530F3
:1002C000C2006320BD013D08033C031C73293E307E
:1002D0003D07840083130008C200C5014208C60020
:1002E000D420BD0A63298A110A12DC2A8A110A1253
:1002F000DD2A420B7C297F294030C3008029C301BD
:1003000001304102C30743088038C400C5014408D6
:10031000C600D42008004008073A031999290B3A6F
:1003200003199E29063A0319A629023A0319AC2992
:10033000B1290130C100C2007921B629C5010130BF
:10034000C600D4200230C2006320B6290130C100AB
:100350000230C2007921B629C5011030C600D42070
:10036000B6290130C5004008C600D42008000B089B
:10037000BD008B13831603178C170C1400000000AC
:1003800083120313BD1B8B1703170C087F39031946
:100390000B2A0313BD0003170D080313BE00031738
:1003A0000F080313BF003D08C0008B213E08031750
:1003B0008D0003133F0803178F0003130B08C000C1
:1003C0008B13831603178C170C1400000000831284
:1003D0000313C01B8B1703170C0D0E0D7F39031968
:1003E0000B2A0313BD0003170D080313BE000317E8
:1003F0000F080313BF003D08C0008B213E08031700
:100400008D0003133F0803178F008D0A03198F0A0D
:100410000313B729031703130800BF01A00A20081C
:10042000213C03188E2A230803191D2A013A0319B7
:10043000232A033A0319292A2E2ADE30831686003E
:10044000831286002E2ABE30831686008312860011
:100450002E2A7E308316860083128600211C3A2ABB
:1004600006081E391E3C031D392A21102208BF0030
:10047000A2018D2A06081E391E3C0319882A060887
:100480000239031D452AC001592A06080439031DF3
:100490004C2A0130C000592A06080839031D532A86
:1004A0000230C000592A06081039031D592A0330AA
:1004B000C0004008C1000330C200F701F801410844
:1004C00003104218F707F70CF80CC218F707F70CDF
:1004D000F80C4219F707F70CF80CC219F707F70CDC
:1004E000F80C421AF707F70CF80CC21AF707F70CCA
:1004F000F80C421BF707F70CF80CC21BF707F70CB8
:10050000F80C230878070420F800A20021148D2A93
:10051000A30A2308033C0319A301A001FE3083169C
:10052000860083123F08F8008A110A12072B800800
:100530000319AC2ABF010408BE003F10831B3F14FF
:100540000008C0008B213E08840083133F188317E6
:10055000840A0319850A972A8A110A124B2B030869
:100560001F3983000130BB00A110BC0183161F148A
:100570009F141F159F1107309C0083138312A00145
:100580002110A201A3013130B0003230B10033306C
:10059000B2003430B3003530B4003630B5003730F7
:1005A000B6003830B7003930B8003030B900BA0181
:1005B00083168113831230297629143003178D0096
:1005C00000308F000313B7210C30BD00FA30C20099
:1005D0006320BD0BE62A1B3003178D0000308F000F
:1005E0000313B7211C3003178D0000308F00031355
:1005F000B721C0308B048B1624303B07F800FA017A
:100600000318FA0A7808BD007A08BE000D2A3D08D2
:10061000840083133E188317780880007808031934
:10062000FC2A3B08C1000230C200792124303B077C
:10063000840083130008BD00C0008B213B080A3CE6
:10064000031D2F2CBB01A1100130C1000230C200DC
:100650007921233003178D0000308F000313B72159
:100660000430BD00FA30C2006320BD0B322BBB0149
:100670003B08093C031C5C2B0130C100C2007921FE
:1006800030303B07840083130008BD0084008313CF
:100690003E188317972A24303B07840083130008F1
:1006A000BD0001303B02303E8400831300083D0250
:1006B000031DA114BB0A382BA118782B8316051033
:1006C000831205140430BD00FA30C2006320BD0B54
:1006D000642B0130C100C20079212C3003178D003A
:1006E00000308F000313B721831685108312851005
:1006F000A11C2D2C0130C100C20079213730031715
:100700008D0000308F000313B7210430BD00FA3094
:10071000C2006320BD0B872B8316851083128514BE
:1007200083160510831205100130C100C200792123
:10073000413003178D0000308F000313B7210430C0
:10074000BD00FA30C2006320BD0BA12B83168510BB
:10075000831285148316051083120510BC0A3C0809
:10076000033C031D2D2C493003178D0000308F00F2
:100770000313B7210430BD00FA30C2006320BD0B63
:10078000BC2B513003178D0000308F000313B721AD
:100790000430BD00FA30C2006320BD0BCA2B5230BA
:1007A00003178D0000308F000313B7210430BD0004
:1007B000FA30C2006320BD0BD82B5A3003178D00CE
:1007C00000308F000313B7210430BD00FA30C2009F
:1007D0006320BD0BE62B5B3003178D0000308F00CC
:1007E0000313B72183160511831205150430BD00CC
:1007F000FA30C2006320BD0BF82B8316051183125B
:1008000005110430BD00FA30C2006320BD0B032C7B
:1008100083160511831205150430BD00FA30C2009D
:100820006320BD0B0E2C83160511831205110430B5
:10083000BD00FA30C2006320BD0B192C83160511D0
:10084000831205150430BD00FA30C2006320BD0BD1
:10085000242C8316051183120511BB01A110013050
:06086000BB07FC2A630047
:02400E00723FFF
:00000001FF
;PIC16F877A
;CRC=C2AA  CREATED="01-oct.-19 16:09"
